:020000040800F2
:10000000A8040020D1000008471700084517000881
:1000100000000000000000000000000000000000E0
:100020000000000000000000000000008F17000822
:1000300000000000000000008D1700089117000864
:10004000E3000008E3000008E3000008E300000804
:10005000E3000008E3000008E3000008E3000008F4
:10006000E3000008E3000008E3000008E3000008E4
:10007000E3000008E3000008E3000008E3000008D4
:10008000E3000008E3000008E3000008E3000008C4
:10009000E3000008E3000008E3000008E3000008B4
:1000A000E3000008E3000008E3000008E3000008A4
:1000B000E3000008E3000008E30000080348854669
:1000C00000F08CFC00480047F12C0008A804002038
:1000D0000448804704480047FEE7FEE7FEE7FEE7E6
:1000E000FEE7FEE799170008BD00000830B50B4693
:1000F000014600202022012409E00D46D5409D4202
:1001000005D31D469540491B254695404019154687
:10011000521E002DF1DC30BDF0B51FB406460020A4
:1001200082B005464024019100901BE001992246CF
:100130000F46304600F0EEFA049A059B801A99416A
:1001400010D310461946224600F0D4FA361A8F41D1
:100150000197224601200021009F00F0CBFA3818B9
:100160004D4100902046641E0028DFDC019B009872
:100170002946324607B0F0BDD2B201E00270401C01
:10018000491EFBD270470022F6E710B513460A4617
:1001900004461946FFF7F0FF204610BDF8B50246A9
:1001A0004A40D40F42004B0052085B089A4202D2E8
:1001B0000246084611464A0023D0C30D4A00DDB26C
:1001C000120EAD1A202D35DA49020126490AF6052C
:1001D0008A19002C00D0524220214F1B1146B940F1
:1001E0002A411018C20D9A4221D0002C17D0012D9F
:1001F00008DCDA05801AD20F8019D207DBB200F0D2
:10020000B5FAF8BDDA05801A012340001B06C018B4
:1002100080185A428018CA0F1043490007E0490865
:10022000C2071143DA05801A80194008801800F0CF
:1002300095FAF8BD61000122511A001BF7E701226F
:10024000D2075140AAE70122D2075040A6E7024652
:1002500070B54A40D30FDB0740002DD04A002AD0AA
:10026000010E140E000212020919400A520A8418E3
:10027000E50104465443000A120A2E045043A4190F
:100280004219200CC543AA18120C0125AD03521CBB
:10029000521912047F39240400D0521C104301D497
:1002A0004000491EC2B20C06C0092018401C40087C
:1002B000802A02D003E0002070BD400840000029E1
:1002C00000DA0020184370BD70B502464A40D50FD1
:1002D00040004A00ED0740085208002814D0002AC8
:1002E00012D0C40DD30D41020120C0055202490AAB
:1002F000520AE41A091812187D34914201D3641C81
:1003000000E04900002C01DA002070BD002391427A
:1003100001D3891A0343400849000028F7D1002976
:100320000AD0914202D10121C90705E0914201D2D0
:10033000012101E00121C943E005C018401900F086
:100340000DFA70BD420005D04200120E52428A42A0
:1003500001DB00207047C90508187047F0B5074653
:100360000846584087B0C00F049048000E46590018
:1003700040084908BC1A884105D2384631461E4615
:1003800017460B4602465800400810434CD0300D2B
:10039000039040055900400D490D0590401A029008
:1003A000402872DA18030121000B09050843019067
:1003B00004980092002805D00199524200208841FB
:1003C00000920190029840210A1A0199009800F0C9
:1003D00091F905460C466B4607CB00F0ACF9C01905
:1003E0007141039A0E0D0023D71756401A467A40E2
:1003F000164344D0049A002A2DD0029A012A039A67
:1004000015DC1205C01A914101263605001C714108
:10041000D20F059ED2070093019202962A462346E8
:1004200000F011FA07B0F0BD38463146FAE716057C
:10043000224A0F46B218C01AB74101210905001C13
:100440004F4100187F41114618187941E20F1043BF
:100450006D19644113E0E2076D0815436408C20793
:100460001443039A01261205C01A91413605001C57
:100470007141CE07400830434908C01851412A460F
:10048000234600F0D3F9CDE7FFE7049801224000AE
:10049000C117121A00238B4104983146C417381A29
:1004A000A141EEE730B40124E407634030BC55E7D6
:1004B00030B40124E407614030BC4FE70000E0FFA6
:1004C000F0B51FB488B00B990998002448400999E9
:1004D000C00F490049080991C0070B9900904900D5
:1004E00049080B9109990898A64608431CD00B9916
:1004F0000A98084318D0099801244000420D48008A
:10050000410D099824050003000B204309900B9826
:100510000003000B20430B9050181C494018002288
:1005200001901446104605E0002001460DB0F0BDD4
:10053000032801DA034600E003239C46C11A0AAEF1
:100540000AE05F0008ADED5B4F00F75B7D430027DD
:10055000AA187C41491C5B1E6145F2DD410004ABD9
:100560005A522104120C0A43240C401C0828DFDBD9
:10057000019802900099704601910090059B049AA1
:100580000799069800F05FF9D0E700000DFCFFFF27
:1005900070B54B005B0803430BD04B005C0D00268D
:1005A00033466542B341D417AD1AA34102DB0020A4
:1005B000014670BD12053018514170BDC217C10F00
:1005C000504010B54018CA079623002100F0CEF81D
:1005D00010BD10B500229623114600F0C7F810BDDB
:1005E0000EB505490291002100910A460B46019182
:1005F00000F029F903B000BD33040000C20F410030
:1006000040020123400ADB05D207090EC0187F29EA
:1006100001DA00207047962903DC9623591AC84056
:1006200001E096398840002AF4D04042704700002B
:100630004A0009030123090B1B051943094B10B597
:10064000520D9A4201DA002010BD064B34339A4213
:1006500003DC9A1A00F05EF810BD03495118884077
:1006600010BD0000FF030000CDFBFFFFC20FD2074B
:10067000400040080BD0C10D0723DB01C918400220
:100680000905400A1143C208400711437047002082
:1006900001467047CB0FDB07490010B549080246F9
:1006A0000A4307D00A0D07240903E401090B121BB2
:1006B000002A01DC002010BDC900440F0C43C1001A
:1006C000E018D205801800F049F810BD0122D207C9
:1006D000002800DB101A002900DB511A8142704704
:1006E0000122D207002800DB101A002900DB511A72
:1006F0008842704710B5202A04DB0146203A914019
:10070000002010BD914020239C1A0346E34019436A
:10071000904010BD10B5202A04DB0846203AD04096
:10072000002110BD0B46D340D0402024A21A914096
:100730000843194610BD10B5202A06DBCB17084622
:10074000203A1041C1170B4306E00B461341D0403D
:100750002024A21A91400843194610BD002904DA4A
:10076000401C490001D140084000704770B400248B
:10077000050C05D11024000402D1002921D0112438
:10078000050E01D100020834050F01D10001241D1E
:10079000850F01D18000A41C002801DB4000641CEF
:1007A000002908D020252E1B0D46F540A14000D081
:1007B00001212943084301061B1B000ADB1D02D54A
:1007C000002070BC7047DB05181880180029F8DA83
:1007D000401C4900F5D170BC400840007047F8B596
:1007E0004C00C20F4300250E40020124400AE405DC
:1007F00049020019490AD2070C1901261B0E610093
:10080000F60717466D1E07E0401A01D572404042B8
:10081000A042F9D840005B1EAB42F9DA002803D0B1
:100820000021FFF7A3FFF8BD3846F8BD10B5002B37
:1008300008DA0024401C614192185B411A4301D13F
:100840004008400010BDF0B51FB482B005460C0052
:1008500003D0084601F08CFD02E001F089FD203054
:100860000246009021462846FFF744FF049B059A64
:1008700004460F4618431143084314D0184610434A
:100880001BD0009840210A1A18460599FFF742FF2D
:1008900005460E46009A05990498FFF72BFF08437A
:1008A00005D0012004E02046394607B0F0BD002005
:1008B000C11705430E432C43374300990E98630537
:1008C000401A7905E40A00220C43FD0A0A3002D5D9
:1008D00000200146E9E70105101969410C9C0D9DB6
:1008E00000196941FFF7A2FFDFE70000F0B50C46F1
:1008F0005C4085B0E40FE40703944C0000266408D4
:1009000059009446490802460296224321D0624685
:100910000A431ED06200570D4A000E032303550DF3
:10092000012402462C492405781B1B0B360B40186A
:1009300023432643614600901C46501AB44103D31A
:100940000098401C009002E0921800985B4100283B
:1009500003DA0020014605B0F0BD002001210905A1
:100960000746864611E064461D46141BB54106D372
:100970006546521BB341744607430C43A646CD0758
:1009800040084908284392185B4105460D43EAD1C7
:100990001046184313D06046194650407140084332
:1009A00006D06046101AB34106D20122002306E0A9
:1009B00000220123DB0702E00122D24353100098FA
:1009C00074460105381C6141029C039D0019694170
:1009D000FFF72CFFBFE70000FD030000064C0125D8
:1009E000064E05E0E36807CC2B430C3C98471034D7
:1009F000B442F7D3FFF766FB102F0008302F000832
:100A00000EB5C217C10F5040CA0740180021054B50
:100A10000293019200910A460B46FFF714FF03B0C0
:100A200000BD00003304000070B5CD0F4A0009037B
:100A30000123090B1B0519430B4BED070024520D35
:100A40009A4201DA002070BD074B34339A4203DC2E
:100A50009A1AFFF75FFE02E00449511888402C43C0
:100A6000F1D0404270BD0000FF030000CDFBFFFF4E
:100A7000F0B5002388E001229A40944614402200F9
:100A80007ED04C68022C01D0122C0CD1DC08A400C2
:100A900027183C6A5D07ED0E0F26AE40B4430E6981
:100AA000AE4026433E6205685E000324B4400F79E1
:100AB000A543BF07BF0FB7402F4307604D68012D07
:100AC00005D0022D03D0112D01D0122D0ED1856835
:100AD000CF68A543B7402F43876047686546AF435B
:100AE0000D79ED06ED0F9D403D434560C568A5437A
:100AF0008C68B4402C43C4604C68E40043D59D0826
:100B0000244CAD002F193C6E9D07EE0E0F25B5400D
:100B1000AC4305252D07A84201D100250FE01E4D4D
:100B2000A84201D101250AE01C4DA84201D10225AD
:100B300005E01B4DA84201D1032500E00525B54085
:100B40002543144C3D66134D80352E684F689643FF
:100B5000FF0300D516432E606E684F689643BF03AF
:100B600000D516436E6025684E689543F60200D5A1
:100B70001543256065684E689543B60202D500E0CE
:100B800001E0154365605B1C0A681446DA4000D03A
:100B900071E7F0BD0018024000040050000800504A
:100BA000000C0050014880687047000000000020E1
:100BB00002488168426889188160704700000020FF
:100BC00010B50848002401688215114301602046D1
:100BD00000F00AF8002801D0012401E000F028F814
:100BE000204610BD0020024070B50F4E00247168F1
:100BF0000546002915D07D20C000FFF777FA014691
:100C00000A480068FFF772FA00F040FC002808D19B
:100C1000042D06D200222946401E00F01FF8356040
:100C200000E00124204670BD000000200C000020E0
:100C300008B50948016801221143016000681040AD
:100C4000009005484038C26B01040A43C263C06B80
:100C50000840009008BD00004010024010B500F0B0
:100C600073FD10BD10B50F4C216803225202914351
:100C700001432160C11FFF39FA390ED10A4806210C
:100C8000006848430949FFF731FA401C02E0002898
:100C900005D0401E61694905F9D4002010BD03202C
:100CA00010BD0000007000400C00002040420F000A
:100CB000FEB5044600680027704D714E800355D57F
:100CC00000200090F06BC00007D4F16BA805014331
:100CD000F163F16B0140012000906A4801688215C0
:100CE00011430160FFF75EFF019005E0FFF75AFF37
:100CF0000199401A022825D862480068C005F5D538
:100D0000E8690321090208400FD0216B81420CD011
:100D1000E86903210902EA698843012109040A43B9
:100D2000EA61EA698A43EA61E861C0070FD0FFF728
:100D300039FF019008E0FFF735FF0199411A524849
:100D4000814201D9032709E0E8698007F3D5E86902
:100D5000032109028843216B0843E86100980028B9
:100D600004D0F16B012000078143F1632078C007B4
:100D700005D0686961688008800008436861207850
:100D8000800705D568690C218843A168084368611C
:100D90002078800606D56869032189028843E168C6
:100DA000084368612088800506D5686903218904A5
:100DB0008843A169084368612088400506D56869B1
:100DC000032109058843E1690843686120784006EA
:100DD00006D56869032109038843216908436861CE
:100DE000208840040ED56869216A80008008084385
:100DF00068610121206A8907884203D1F06889135C
:100E00000843F0602068000305D5686940218843E5
:100E1000616A08436861206881021C480BD56969D2
:100E20008210A36A914319436961A16A914202D178
:100E3000F1680143F160216849020AD56969E26AF3
:100E4000814311436961E16A814202D1F168014342
:100E5000F160208800050FD5686903218903884364
:100E6000616908436861012160698903884203D18F
:100E7000F06889000843F0603846FEBD401002402B
:100E800000100240007000408813000000000001C4
:100E9000F8B50F46060043D04D4D28684007400F77
:100EA000B84213D22868C008C00038432860FFF752
:100EB00079FE044605E0FFF775FE011B45488142B7
:100EC00061D828684007400FB842F4D13068424CDE
:100ED00081070DD5400704D5A06807210903084301
:100EE000A060A0680F2109028843B1680843A06090
:100EF0003078C00732D0706801280AD002280BD0A1
:100F000000280FD03449403103280ED0C969890721
:100F100004E02168890301E021688901002906DBDA
:100F20000120F8BD21684905F8E7096AEFE7A168E3
:100F3000C908C9000143A160FFF734FE009006E034
:100F4000FFF730FE0099411A224881421BD8A06861
:100F5000382108407168C9008842F1D128684007EB
:100F6000400FB84217D91A480168C908C900394367
:100F70000160FFF717FE054607E0FFF713FE411B70
:100F80001448814201D90320F8BD11480068400788
:100F9000400FB842F1D13078400706D5A06807214C
:100FA00009038843F1680843A06000F031F8A168A4
:100FB0003C2289091140094A515CC906C90EC84042
:100FC0000749086007480068FFF70EFEF8BD0000FB
:100FD000002002408813000000100240902D0008FD
:100FE0000C000020000000200648074900688968BE
:100FF000064A4904490F8900515CC906C90EC84018
:10100000704700000C00002000100240D02D0008A6
:1010100010B5204CA068204A8006400F16D0A0686A
:101020008006410F501001290FD0A1688906490F91
:10103000022912D0A0688006400F042823D0A0689F
:101040008006400F032821D0002010BD2068012118
:101050008004400F8140104612E0E1688B07E16890
:101060009B0F4906490F491C032B00D01046FFF780
:101070003DF8E1684904490E4843E168490F491CBD
:10108000FFF734F810BD0120C00310BD7D20000221
:1010900010BD0000001002400024F400F8B5040068
:1010A0007ED020783827C007EF4D002846D0A868AA
:1010B000E96838408907890F102802D008280BD02A
:1010C00001E0032908D001206268000482420AD1AD
:1010D00029680143296015E0286880032ED56068DF
:1010E0000028DDD02AE0052301211B0489049A424F
:1010F0002A6802D10A432A60EAE782432A60286804
:1011000088432860606800280CD0FFF74BFD064636
:1011100004E0FFF747FD801B642873D8286880032C
:10112000F7D50BE0FFF73EFD064604E0FFF73AFD7A
:10113000801B6428F1D828688003F7D420788007C2
:1011400069D5A868E96838408A070721920FC90263
:10115000102802D0002813D001E0022A10D0E06845
:10116000002846D0286888432169084328602868F9
:10117000FF21013108432860FFF714FD06462CE0EB
:101180002A68520502D5E268002A89D06A687F235E
:101190001B029A4363691B021A436A60002800E03D
:1011A0008DE00ED1286888432169084328602868AB
:1011B00001218004400F8140AC48FEF797FFAC4905
:1011C0000860AC480068FFF70FFD002877D122E0E7
:1011D000FFF7E8FC801B02289FD828684005F7D558
:1011E00068687F21090288436169090208436860D1
:1011F00011E02968FF20013081432960FFF7D2FC0C
:10120000064605E098E0FFF7CDFC801B022884D855
:1012100028684005F7D42078974E00072ED5A86897
:101220008006400F03280AD0A0690028306A16D033
:10123000012108433062FFF7B5FC07460BE0306A36
:1012400080071BD5A06900289FD017E0FFF7AAFCF4
:10125000C01B022870D8306A8007F7D50EE040081E
:1012600040003062FFF79EFC074604E0FFF79AFC5F
:10127000C01B022860D8306A8007F7D42078400766
:101280006CD5A86800278006400F042818D0E86BAA
:10129000C00008D4E96B012000070143E963E96B52
:1012A00001400127009175480168C90519D40168FA
:1012B000821511430160FFF775FC00900DE083E09B
:1012C000F06980074AD5A06800287DD046E0FFF786
:1012D00069FC0099401A02282ED868480068C005A9
:1012E000F5D5A168012910D004200529F16911D094
:1012F00049084900F161F1698143F161A068002862
:1013000016D0FFF74FFC00900EE0F0690121084372
:10131000F061F3E70143F161F7E7FFF743FC009960
:10132000411A574881426FD8F0698007F5D50EE021
:10133000FFF738FC009007E066E0FFF733FC009908
:10134000411A4F4881425FD8F0698007F5D4002FD9
:1013500004D0E86B012109078843E863E0690028AD
:101360007FD0A9688906490F022953D00126360685
:10137000022828680DD0B0432860E8688008800003
:10138000E860E8683F490840E860FFF70BFC044666
:101390003CE0B0432860FFF705FC074604E0FFF798
:1013A00001FCC01B02282FD828688001F7D4616A8D
:1013B000206AA26A0843E16A120211430843216BC2
:1013C0000843616B084300E049E0E9682E4A114098
:1013D0000843E860286830432860E868012109076D
:1013E0000843E860FFF7DEFB044604E0FFF7DAFBA2
:1013F000001B022808D828688001F7D531E0FFF7E4
:10140000D1FB001B022801D90320F8BD2868800108
:10141000F5D426E00128F8D0E868226A8107890F10
:1014200091421CD17021626A0140914217D17F2103
:10143000A26A090201401202914210D11F214904FF
:10144000E26A014091420AD107214906226B01401C
:10145000914204D1400F616B4007884201D00120C6
:10146000F8BD0020F8BD0000001002400024F40088
:101470000C000020000000204010024000700040DE
:1014800088130000FFFFFEEE8C80C111094910B5E2
:10149000401E884201D9012010BD074C6061032124
:1014A000081F00F051F90020A061072020610020F2
:1014B00010BD0000FFFFFF0000E000E030B5014676
:1014C00060310A7F012A18D001220A7724230246BC
:1014D00080321446136003681A681D686D086D0039
:1014E0001D6001235B079A43002343660068026086
:1014F000202020600B77184630BD022030BDF8B5A3
:10150000054604466035287F01281DD00120287734
:101510002422204680300746026020680668026860
:101520005208520002602068826807235B069A43D3
:101530000A438260204600F037F9206806602020C8
:10154000386000202877F8BD0220F8BDF8B50546C0
:1015500004466035287F01281CD0012028772422EA
:1015600020468030074602602068066802685208FC
:101570005200026020688268D200D2080A4382606A
:10158000204600F011F92068066020203860002015
:101590002877F8BD0220F8BD70B5040006D02046BB
:1015A000803005460068002802D007E0012070BDA9
:1015B00000217C200155204600F026F824202860D8
:1015C00020680168490849000160204600F0B4F92C
:1015D0000128ECD0A06A002802D0204600F014F9BF
:1015E000206841680922D2029143416020688168E5
:1015F0002A22914381602068016801221143016021
:10160000204600F067F970BD10B586B0044614217D
:101610006846FEF7B8FD1149206888421CD1104881
:10162000C26B49010A43C263C26B0A400592416B17
:10163000012211434163406B6946104005900C2024
:101640000090022001900020029003900620049058
:1016500005200007FFF70CFA06B010BD008000401F
:1016600000100240FFB5074604468037386885B051
:101670000D46202864D1002D0CD00798002809D0F1
:101680000120A1680003814207D12069002804D10C
:10169000E80702D0012009B0F0BD2046603002907A
:1016A000007F01284CD00298012101770020B8600A
:1016B00021203860FFF776FA0190264640360798D9
:1016C000B0820798F0820120A1680003814202D114
:1016D0002069002802D00395002515E00020039022
:1016E00012E000228021204600F054FC002818D18E
:1016F0000398002817D02168007888620398401C5E
:101700000390F08A401EF082F08A019B002808981E
:101710000090E6D100224021204600F03BFC00284A
:1017200008D00320B7E728882168C005C00D88626B
:10173000AD1CE6E720203860029900200877AAE770
:101740000220A8E7FEE770478307FF22DB0E9A40DE
:101750008907090E994000280BDA0007000F0838A6
:10176000830808489B001818C36993430B43C3615F
:101770007047830804489B001B181868904308436F
:101780001860704700ED00E000E400E0704770472B
:1017900010B5FFF70DFA10BD01200249C0068860A0
:1017A0007047000000ED00E0F0B513A106C985B058
:1017B0000192009112A206CA039202910446416E60
:1017C0004034002915D000688168806809014D0FF8
:1017D000400F02AE315C6F46385CC000FEF786FCFD
:1017E0006085785D715DC000FEF780FC208505B0E6
:1017F000F0BD01206085F9E7010101030701000048
:10180000080402040801010110B5018DC90707D0C1
:1018100001684A6801235B049A43C36A1A434A6019
:10182000018D890707D501684A6801231B049A4383
:10183000036B1A434A60018D490707D501684A685E
:1018400001239B049A43436B1A434A60018D0907A5
:1018500007D501684A680123DB039A43836B1A4367
:101860004A60018DC90607D50268916801231B03F0
:101870009943C36B19439160018D890607D50168AF
:101880008A6801235B039A43036C1A438A60018DC3
:10189000490612D503685A6801210905446C8A4338
:1018A00022435A60426C8A4207D10268516803237E
:1018B0005B059943836C19435160018D090607D577
:1018C00001684A680123DB04C06C9A4302434A6002
:1018D00010BD0000FEB50546002680350446AE600A
:1018E000FFF760F9019020680068124F000709D5E2
:1018F00001210097002249052046019B00F04AFB88
:1019000000280DD12068006840070BD50121009701
:10191000002289052046019B00F03CFB002801D0F5
:101920000320FEBD202028606860603426770020F8
:10193000FEBD0000FFFFFF01F8B5044603688068A4
:101940002269E5691043626900262A431043626EEA
:10195000F24902431868F24D28401043186022688B
:10196000506803231B039843E368184350602268C0
:10197000A0698A4201D0236A18439368E94D2B403D
:10198000034393602068C26A636A120912011A4312
:10199000C262E54B2068E54A98420AD15269920733
:1019A000920F39D0012A3BD0022A37D0032A25D101
:1019B00022E0DF4B98420AD152690C231A402BD007
:1019C000042A2DD0082A29D00C2A17D114E0D94B8B
:1019D000984221D0D84B98421ED088420ED15369EC
:1019E00003229202134017D0012292029B1A17D0B1
:1019F0009B1A13D0934201D1082700E01027FF253E
:101A0000013588426FD1002F0CD0022F3BD0042F1C
:101A10007CD0082F69D182E00027F0E70227EEE7AB
:101A20000427ECE7FFF7E0FA72E0022129E0022840
:101A300012D0032812D0042812D0052812D006286C
:101A400012D0072812D0082812D0092812D00A284C
:101A500012D00B2814D111E0042112E0062110E06D
:101A600008210EE00A210CE00C210AE0102108E018
:101A7000202106E0402104E0802102E0294600E028
:101A8000012110461AE0606A002815D0012824D0F0
:101A9000022824D0032824D0042827D0052827D0C2
:101AA000062827D0072827D0082827D0092827D09C
:101AB0000A2827D00B2827D00121A048FEF716FBC3
:101AC000002860D0616800914A008918814259D885
:101AD00000990903814255D356E00221EDE7042124
:101AE000EBE70621E9E738E110E04BE00821E4E705
:101AF0000A21E2E70C21E0E71021DEE72021DCE704
:101B00004021DAE78021D8E72946D6E7FFF780FAB7
:101B10000246606A0028B3D0012888D185E7606A50
:101B2000002815D0012817D0022817D0032817D075
:101B3000042817D0052817D0062817D0072817D053
:101B4000082817D0092817D00A2817D00B2817D033
:101B500001210120C003B1E70221FAE70421F8E7DF
:101B60000621F6E70821F4E70A21F2E70C21F0E765
:101B70001021EEE72021ECE74021EAE78021E8E7A9
:101B80002946E6E70126DBE1002F31D0022F7BD08A
:101B9000042F72D0082FF5D1606A002815D00128D3
:101BA0006CD002286BD003286AD0042869D005289D
:101BB00068D0062867D007287ED008287DD009285D
:101BC0007CD00A287BD00B2800D0012500270120DB
:101BD0002A463B46C0030021FEF79EFA020E090288
:101BE000114302020098400810187941009A39E028
:101BF000FFF7FAF982E0012A15D0022A15D0032A4C
:101C000015D0042A15D0052A15D0062A15D0072A82
:101C100015D0082A15D0092A15D00A2A15D00B2A62
:101C200014D0012512E0022510E004250EE006255F
:101C30000CE008250AE00A2508E00C2506E010253E
:101C400004E0202502E0402500E080252A4600230C
:101C5000FEF762FA020E090211436268030250089D
:101C6000181879410023FEF757FA03210902421A96
:101C700033498A4270D985E706E03DE044E045E01B
:101C800046E047E048E05DE0606A00281AD001289D
:101C90001ED002281ED003281ED004281ED00528DE
:101CA0001ED006281ED007281ED008281ED00928BE
:101CB0001ED00A281ED003E046E047E048E049E095
:101CC0000B2800D0012500272A463B461B4882E707
:101CD0000225F8E70425F6E70625F4E70825F2E7EC
:101CE0000A25F0E70C25EEE71025ECE72025EAE7CA
:101CF0004025E8E78025E6E7FFF78AF90027626AD2
:101D00003946002A8DD076E702255FE704255DE796
:101D100006255BE7082559E70A2557E700800040BC
:101D2000F369FFCFFFF4FF1100380140401002407B
:101D30000044004000480040004C00400024F400F3
:101D4000FFFC0F000C2541E710253FE720253DE76C
:101D500040253BE7802539E7F0E00122E069D20326
:101D600090426ED1002F06D0022F35D0042F7AD0AA
:101D7000082F80D17AE0FFF737F976E0012815D0F7
:101D8000022815D0032815D0042815D0052815D011
:101D9000062815D0072815D0082815D0092815D0F1
:101DA0000A2815D00B2814D0012512E0022510E0D6
:101DB00004250EE006250CE008250AE00A2508E0C7
:101DC0000C2506E0102504E0202502E0402500E077
:101DD0008025294610461BE0606A002815D001289E
:101DE0002BD002282BD003282DD004282DD0052855
:101DF0002DD006282DD007282DD008282DD0092831
:101E00002DD00A282DD00B2800D0012529465F4867
:101E1000FEF76CF9616840004A088018FEF766F921
:101E200080B201465A4A1039914200D9AAE6511CA3
:101E300001400007400F084380E00225E6E7042543
:101E4000E4E717E00FE00625E0E70825DEE70A25CE
:101E5000DCE70C25DAE71025D8E72025D6E7402572
:101E6000D4E78025D2E7FFF7D3F80246606A00285E
:101E70009AD083E7002F06D0022F35D0042F7ED0D2
:101E8000082FD3D17EE0FFF7AFF87AE0012815D014
:101E9000022815D0032815D0042815D0052815D000
:101EA000062815D0072815D0082815D0092815D0E0
:101EB0000A2815D00B2814D0012512E0022510E0C5
:101EC00004250EE006250CE008250AE00A2508E0B6
:101ED0000C2506E0102504E0202502E0402500E066
:101EE0008025294610461BE0606A002815D001288D
:101EF00030D0022830D0032830D0042831D0052833
:101F000031D0062831D0072831D0082831D009280F
:101F100031D00A2831D00B2800D0012529461B4892
:101F2000FEF7E4F861684A088018FEF7DFF880B22F
:101F30000146174A1039914200D923E62168C8604A
:101F4000204601214030418501850020E066206760
:101F50003046F8BD0225E1E70425DFE70625DDE789
:101F60000DE00825DAE70A25D8E70C25D6E7102585
:101F7000D4E72025D2E74025D0E78025CEE7FFF73C
:101F800047F80246606A002896D07FE70024F400F4
:101F9000EFFF0000FFB581B017460E4604460A9DCC
:101FA00009E0681C07D0FEF7FDFD0499401AA8421D
:101FB0000CD8002D0AD02068C169304688431AD059
:101FC0000020B842EDD0002005B0F0BD20680168C7
:101FD000FF22A132914301602068816849084900CD
:101FE0008160202120468030016041600020603403
:101FF00020770320E8E70120E3E710B5A0B03821FF
:102000006846FEF7C0F800241B941C941D943421EC
:102010000EA81E94FEF7B7F801204002FEF722FE3C
:1020200002200090C0010390402005900494079482
:102030006846FFF733F807201B901C941D9400217D
:102040001E941BA8FEF724FF20200E9011940EA8CA
:10205000FEF72EFE20B010BD00217D220170D200BF
:1020600042607F22D205C2604A1E8260120D028346
:1020700001614161024A0162C26141627047000030
:1020800080BB00008160002141627047002900DAB6
:102090004942416070470000FEB504468068411C1B
:1020A0002CD0FEF78BFA7F49FEF70EF90546E06962
:1020B000FEF784FA0746606AFEF78BFA3946FEF7A8
:1020C00003F92946FEF70CFB18D23046FEF7CEFA8C
:1020D0000022754BFEF742F906460D46208BFEF7AF
:1020E00078FAE168FEF7B3F8FEF7C0FA32462B46FD
:1020F000FEF7E6F9FEF79CFA80B2FEBD606A401C6E
:1021000060622078002809D07F26F605012838D0A3
:1021100002284FD0032870D00020FEBD6069FEF772
:10212000A5FA624A624BFEF7CBF907460191206A95
:10213000FEF756FA05460E46E069FEF73FFA0090B4
:102140006068FEF73BFA0099FEF7BEF8FEF78EFADC
:10215000564A574BFEF7B4F92A463346FEF7B0F914
:102160003A46019BFEF7FAF800F038FD0022D24310
:10217000FEF70EFA00224C4BFEF7F0F8FEF78AFA53
:1021800016E0E069FEF71AFA07466068FEF716FAED
:102190000546206AFEF71DFA2946FEF758F839462B
:1021A000FEF792F86169FDF7F9FF314600F062FD34
:1021B000E0623EE0E069FEF701FA05466068FEF77E
:1021C000FDF90746206AFEF704FA3946FEF73FF8A4
:1021D0002946FEF779F86169FDF7E0FF0121FEF776
:1021E000B1F801218907E06200F044FD3146FEF7B5
:1021F00026F840004008DBE7FFE76068FEF7DEF9FD
:102200000546E069FEF7DAF92946FEF75DF8002198
:10221000C943FEF797F80546206AFEF7DAF96169C7
:10222000FDF7BCFF2946FEF751FA01D20020BFE7B7
:10223000E662258B1F4826698542E16A304615D142
:10224000FDF7ACFF05461C49E068FEF700F829469B
:10225000FDF7FDFFFEF7D2F91849884201DD084677
:1022600002E0002800DA0020000114E0FDF796FFEC
:1022700006462846FEF7ADF9E168FDF7E8FF31466E
:10228000FDF7E5FFFEF7BAF9854201DA284602E0DC
:10229000002800DA0020216A80B2491C21622085D2
:1022A000FEBD000000007A440000E03FF1D4C853B6
:1022B000FB211940F0FF000000F07F45FF0F0000F8
:1022C000054A914203D87F22D205914201DD026185
:1022D0007047016170470000000080BF002900DAEC
:1022E0004942C161002101624162704701700021D1
:1022F00001624162704700B50346FFF7ADFE184624
:1023000000BD000010B510480E4901600F49416042
:1023100000218160C16001618161016241620C2222
:10232000816242614166FFF737F900210648FFF7F5
:102330000DF900210448FFF7E2F80348FFF7BEF863
:1023400010BD0000008000401800002040420F0037
:102350000FB410B503A9044B044A029800F096FB91
:1023600010BC08BC04B01847D52C00081000002091
:102370002021020C01D010211046020A01D0104683
:102380000839020901D01046091F820801D0104601
:10239000891E420801D0881E7047081A7047F0B4A1
:1023A000040C8BB2264682B25E430D0C1046370CED
:1023B0005843360480190021794116466E43370C84
:1023C00036048019794126466E438919F0BC70475E
:1023D0004900CA020243100000D004204A0D01D077
:1023E00001221043044A490D914201D102210843C0
:1023F000012800D105207047FF070000F7B596B00F
:1024000014460021A160D160179909914D00CD4972
:102410006D088D4205DC179961602060002019B0BD
:10242000F0BDC949C94E8D4238DAD32709997F05D5
:102430000029C74A1799334617DDFEF733F8B5422E
:1024400006D0C44AC44BFEF72DF86160206009E055
:102450003A46C14BFEF726F8C04AC14BFEF722F8B8
:1024600061602060012019B0F0BDFDF777FFB54233
:1024700006D0B84AB84BFDF771FF6160206009E0F3
:102480003A46B54BFDF76AFFB44AB54BFDF766FF18
:10249000616020600020C04319B0F0BDB1498D4299
:1024A000179977DC490049080746AF4AAF4B0491BA
:1024B000FEF706F80022AE4BFDF750FFFEF7B4FA28
:1024C0000A90FEF79DFAA24A334603910290FDF767
:1024D000F7FF3A46049BFDF7EBFF06460F469D4A81
:1024E0009D4B03990298FDF7EBFF2A0D01250C92F5
:1024F00032463B46FDF7DCFF61602060032D39D09A
:102500004800410D0C98401A69016918113981423F
:1025100030DA98492801794408960D9008180497F4
:102520004368026803990298FDF7CAFF02460B460A
:102530000791069004990898FDF7B4FF06460F46E8
:10254000049B089AFDF7B4FF079B069AFDF7AAFFC4
:1025500005918949049079440D984018C3688268B0
:1025600003990298FDF7ACFF059B049AFDF79AFFCB
:102570006D1CBDE70998002809DA01226068D207BE
:10258000504060600A9819B04042F0BD02E00A98DD
:1025900019B0F0BD09030122090B12050E9089182C
:1025A0001798109140007549400D40184111C00620
:1025B000C00E0D9113902021081A1490002006904F
:1025C00005250790139800280D980CD0401982001B
:1025D0006B487844875813998F40101841681498B5
:1025E000C1400F4304E040198100664878444758D1
:1025F00010993846FFF7D3FE06460A9138460E99E1
:10260000FFF7CDFE8A190A9B8A4201D2012100E020
:102610000021C9188C46AF00694679188B684E684E
:10262000C318834201D2012000E000209619361819
:10263000002802D0964202D903E0964201D201203E
:1026400000E00020624612184E6068468B60C2515E
:1026500028466D1E0028B5DC012102984907401864
:10266000800F1390029805998000039E049D0B91A2
:10267000FEF7C6F9074630460891FDF7B1FF1D2267
:10268000D243FDF785FF10900F912846FDF7A8FF74
:102690003D22D243FDF77CFF0E900D910B98FDF784
:1026A0009FFF5D22D243FDF773FF0B910C900D9BB2
:1026B0000E9AFDF753FE0F9B109AFDF74FFE3A4618
:1026C000089BFDF74BFE00250E463A462846089B20
:1026D000FDF7E8FE0F9B109AFDF7E4FE0D9B0E9AA6
:1026E000FDF7E0FE0B9B0C9AFDF7E2FE264A274B16
:1026F000FDF7E6FE07460D91254A264B3146284652
:10270000FDF7DEFE3A460D9BFDF728FE0F4615222B
:102710000C9092061D4B31462846FDF7D1FE3B46F4
:102720000C9AFDF71BFE179A002A05DA139A5242FB
:1027300013920122D207514061602060139819B0B2
:10274000F0BD0000FB21E93F7CD90240FB21F93FAD
:10275000000040543163621A61B4D03D7370032E9F
:102760008A19A33BFB21394183C8C96D305FE43F1F
:102770000000E03F06090000C60800000BFCFFFF58
:102780007A08000060080000182D4454FB21F93D30
:102790003326A611460B113CF0B51FB44E00F920AC
:1027A0007608800584B00F46864204DA0498FEF766
:1027B0003BF9002838D0049A3B4610461946FDF7ED
:1027C0007FFE044602462C480D460B4606217844FF
:1027D00000F05CF822462B46FDF772FE0191009056
:1027E0003946079B069A0498FDF76AFE0746029150
:1027F00020462946019B009AFDF762FE3A46029B5D
:10280000FDF750FE074600220091D243204629469C
:10281000FDF7BEFE194A96420ADA3A46009BFDF7DA
:1028200041FE0022164B23E00020154909B0F0BDFF
:10283000144A964202DD0024134D03E001225205A2
:10284000B51A002422462B46FDF72CFE06460191C0
:1028500022462B4600200A49FDF724FE0D46044679
:102860003A463046009B0199FDF71CFE22462B4656
:10287000FDF71EFE09B0F0BD1E0600003333D33F46
:102880000000F03F0000E93F0000D23FF8B50446E9
:102890004F1EC8000838211815461E4608684968AA
:1028A0003A4606239A4310D02A463346FDF708FEDF
:1028B0003A46D200083AA3181A687F1E5B68FDF7F3
:1028C0004DFD06223B469343EED1022F23D0042F29
:1028D00011D0062F2FD12A463346FDF7F1FDE36ACA
:1028E000A26AFDF73BFD2A463346FDF7E9FD636A20
:1028F000226AFDF733FD2A463346FDF7E1FDE36921
:10290000A269FDF72BFD2A463346FDF7D9FD636921
:102910002269FDF723FD2A463346FDF7D1FDE36822
:10292000A268FDF71BFD2A463346FDF7C9FD636823
:102930002268FDF713FDF8BDF0B51FB40546480049
:102940000C46F9214008890586B088420BDA2846F2
:102950002146FFF73DFD042801D100F071F828461B
:1029600021460BB0F0BD2A46234610461946FDF716
:10297000A7FD06460F462A462346FDF7A1FD009017
:102980002548019132463B4605217844FFF77EFFFA
:10299000029010980391002829D0204A204B0199D9
:1029A0000098FDF78DFD0490059168460FC8FDF76E
:1029B00087FD002201910090D24309990898FDF704
:1029C000E7FD019B009AFDF76DFD32463B46FDF7A2
:1029D00077FD099B089AFDF765FD059B049AFDF7B5
:1029E00061FD2A462346FDF763FD0BB0F0BD0B46A3
:1029F00030463946029AFDF763FD084A084BFDF759
:102A0000ADFC019B009AFDF75BFD2A462346FDF7CE
:102A1000A5FC0BB0F0BD00005A0500004955555506
:102A20005555C5BF10B50122FDF7B2FD10BD0022FE
:102A300010B5134610461146FDF758FF10BD0000B3
:102A4000034A10B500201107FDF7A2FD10BD0000DC
:102A500001FDFFFF10B500210846FDF735FC10BD54
:102A600002E008C8121F08C1002AFAD17047704757
:102A7000002001E001C1121F002AFBD170470000B5
:102A8000014908607047000014000020FFB58DB0B8
:102A90000446002506E025280AD0109A0F99904791
:102AA000641C6D1C20780028F5D1284611B0F0BDBB
:102AB00000270121484A009700E00743641C23785F
:102AC0000846203B98401042F7D120782E2817D195
:102AD000042007436078641C2A280CD10E98641CDB
:102AE00002C800910E900BE000990A225143303940
:102AF0004018641C00902078014630390929F3D928
:102B000020780028D1D0642808D0692806D07528FC
:102B10001ED0109A0F9990476D1C5BE00A200E9909
:102B2000019001C90E91002802DA40422D2102E0F5
:102B3000390504D52B216A461172012103E0F907FA
:102B400004D02021F7E70BAE0B910DE00021FAE74E
:102B50000A200E99019001C90E91F7E70199FDF73E
:102B6000C5FA3031761E31700028F7D103A8801BDA
:102B700020300190780701D5009801E001200090F5
:102B80000199884201DD401A00E0002000270090F2
:102B900006E002A8109AC05D0F9990476D1C7F1C3B
:102BA0000B988742F5DB04E0109A30200F9990478C
:102BB0006D1C0099481E00900029F5DC05E0307876
:102BC000109A761C0F9990476D1C0199481E019030
:102BD0000029F4DC641C65E70928010000B54A00FF
:102BE000224B520887B09A4202DC0022134625E0AD
:102BF0001F4B9A4208D1002808D10120FFF740FF5F
:102C0000FFF715FF07B000BD9A4203DBFFF70AFF8D
:102C100007B000BD02AAFFF7F1FB8107890F0BD0B7
:102C2000012001290ED0022916D0009002A80FC859
:102C3000FFF782FE07B000BD02A80FC8FFF7ACFD8A
:102C400007B000BD009002A80FC8FFF775FE012273
:102C5000D207514007B000BD02A80FC8FFF79CFD86
:102C60000122D207514007B000BD0000FB21E93F1F
:102C70000000F07F70B542000446FF205208C005F6
:102C8000821A4D00D20F6D08002A09D1401BC00FD7
:102C900006D1FF2260001206904215D0480013D0E2
:102CA0002046FDF79CFDC10DC9430906090E0AD057
:102CB000E20FC10FD207C9078A4204D00D43014673
:102CC0002846FDF7C0FA70BD0120FFF7D9FEFFF7D7
:102CD000C1FE70BD13B5044B012269460348FEF7DF
:102CE000C1FC00981CBD0000FFFF00001800002080
:102CF0008EB0FDF765FF6846FFF7FDFAFFF77DF937
:102D00001B48426B04210A434263426B0A400C9207
:102D1000426B20210A434263426B0A400C92416B92
:102D2000012211434163406B10400C90FFF7EAFA17
:102D300064216846FFF7D2FA05216846FFF7A6F935
:102D400000216846FFF7D2FA00216846FFF7B8FA7B
:102D50007D21C9006846FFF795F906A0FFF7F8FA4C
:102D60006846FFF799F9014607A0FFF7F1FAF7E780
:102D7000001002404C65747320676F207561727497
:102D800020746573740D0A0025640D0A00000000AC
:102D90000000000000000000000000000000000033
:102DA0000000000000000000000000000000000023
:102DB0000100000002000000030000000400000009
:102DC00006000000070000000800000009000000E5
:102DD00000000000000000000000000000000000F3
:102DE00001000000020000000300000004000000D9
:102DF0004C5555555555A53F7751C1166CC156BF19
:102E00009015CB19A001FA3EAD529C804F7E92BE28
:102E1000C4B1B4BD9EEE213ED43888BEE9FAA8BD47
:102E200000004054FB21F93F3163621A61B4D03D88
:102E30000000601A61B4D03D7370032E8A19A33B61
:102E40000000002E8A19A33BC14920259A837B39B3
:102E500000000000000000006E83F9A22915444E16
:102E6000D15727FCC0DD34F5999562DB4190433C96
:102E7000AB6351FE61C5BBDE3A6E24B7E0D24D4272
:102E8000EA2E49061C92D1091CEB1DFE3EA729B172
:102E9000F53582E88444BB2E26709CE9417E5FB400
:102EA00039D69139F43953838B5F849C3B28F9BD23
:102EB000FF97F81F0F9805DE8B112FEF1F6D0A5A31
:102EC000CF7E366DB709CB27663F464F2DEA5F9E12
:102ED000C7BA27757BF1E5EBF739073DEA92528ACD
:102EE000B15FFB6B085D8D1FA6F810111111813FBA
:102EF000D561C119A0012ABF7DFEB157E31DC73EB0
:102F0000EB9C2B8AE6E55ABE7CD5CF5A3AD9E53DF3
:102F1000302F00080000002018000000602A000880
:102F2000482F00081800002090040000702A0008B4
:102F30000400000001000000000000000024F40074
:082F4000000000000000000089
:04000005080000BD32
:00000001FF
